4600436805000000900005931710001078091000107809001840Y     V2110  20051432005143                                                                                        0
4600436805000000900005931710001078091000107809001840000 Y V4120  20051432005143                                                                                        0
4600436805000000900005931710001078091000107809001840    Y V4130  20051432005143                                                                                        0
4600436805000000900005931710001078091000107809001840    Y V4140  20051432005143                                                                                        0
4600436805000000900005931710001078091000107809001000    Y V4210  20051432005143                                                                                        0
46004368050000009000059317                    0000013     V6900S 2005143200514310     10000000000000002                 06                                             0
46004368050000009000059317                    0000013     V6900S 2005143200514310     50000000000000002                 06                                             0
46004368050000009000059317                    0000013     V6900S 2005143200514310     84000000000000004                 06                                             0
46004368050000009000059317                    0000013     V6900S 2005143200514310     90000000000000004000000000000000  06                                             0
46004368050000009000059317                    000001      V6900S 2005143200514310     10000000000000002                 05                                             0
46004368050000009000059317                    000001      V6900S 2005143200514310     50000000000000002                 05                                             0
46004368050000009000059317                    000001      V6900S 2005143200514310     84000000000000004                 05                                             0
46004368050000009000059317                    000001      V6900S 2005143200514310     90000000000000004000000000000000  05                                             0
46004368050000009000059317                       001      V6900S 2005143200514310     10000000000000002                 04                                             0
46004368050000009000059317                       001      V6900S 2005143200514310     50000000000000002                 04                                             0
46004368050000009000059317                       001      V6900S 2005143200514310     84000000000000004                 04                                             0
46004368050000009000059317                       001      V6900S 2005143200514310     90000000000000004                 04                                             0
46004368050000009000059317001200514312005086              V1100W 9000059317JDBSMPLUSACQ   N                                     N          N    840000                 0
46004368050000009000059317001200514322005086              V1100W 9000059318JDBPLUS ACQ    NB000000000000451257                  Y4368050000Y9999840000000              0
46004368050000009000059317001200514322005086              V1100W 9000059319JDBPLUS ACQ    NB000000000000451257                  Y4512570004N0002840000000              0
46004368050000009000059317001200514322005086              V1100W 9000059320JDBPLUS ACQ    NB000000000000451257                  Y4512570004N0004840000000              0
4600451257000000900005931890000593171000107809001840Y     V2110  20051432005143                                                                                        0
4600451257000000900005931990000593171000107809001840Y     V2110  20051432005143                                                                                        0
4600451257000000900005932090000593171000107809001840Y     V2110  20051432005143                                                                                        0
4600451257000000900005931890000593171000107809001840000 Y V4120  20051432005143                                                                                        0
4600451257000000900005931990000593171000107809001840000 Y V4120  20051432005143                                                                                        0
4600451257000000900005932090000593171000107809001840000 Y V4120  20051432005143                                                                                        0
4600451257000000900005931890000593171000107809001840    Y V4130  20051432005143                                                                                        0
4600451257000000900005931990000593171000107809001840    Y V4130  20051432005143                                                                                        0
4600451257000000900005932090000593171000107809001840    Y V4130  20051432005143                                                                                        0
4600451257000000900005931890000593171000107809001840    Y V4140  20051432005143                                                                                        0
4600451257000000900005931990000593171000107809001840    Y V4140  20051432005143                                                                                        0
4600451257000000900005932090000593171000107809001840    Y V4140  20051432005143                                                                                        0
4600451257000000900005931890000593171000107809001000    Y V4210  20051432005143                                                                                        0
4600451257000000900005931990000593171000107809001000    Y V4210  20051432005143                                                                                        0
4600451257000000900005932090000593171000107809001000    Y V4210  20051432005143                                                                                        0
46004512570000009000059318                       001 Y    V6900S 20051432005143                                                                                        0
46004512570000009000059319                       001 Y    V6900S 20051432005143                                                                                        0
46004512570000009000059320                    0000013     V6900S 2005143200514310     10000000000000002                 06                                             0
46004512570000009000059320                    0000013     V6900S 2005143200514310     50000000000000002                 06                                             0
46004512570000009000059320                    0000013     V6900S 2005143200514310     84000000000000004                 06                                             0
46004512570000009000059320                    0000013     V6900S 2005143200514310     90000000000000004000000000000000  06                                             0
46004512570000009000059320                    000001      V6900S 2005143200514310     10000000000000002                 05                                             0
46004512570000009000059320                    000001      V6900S 2005143200514310     50000000000000002                 05                                             0
46004512570000009000059320                    000001      V6900S 2005143200514310     84000000000000004                 05                                             0
46004512570000009000059320                    000001      V6900S 2005143200514310     90000000000000004000000000000000  05                                             0
46004512570000009000059320                       001      V6900S 2005143200514310     10000000000000002                 04                                             0
46004512570000009000059320                       001      V6900S 2005143200514310     50000000000000002                 04                                             0
46004512570000009000059320                       001      V6900S 2005143200514310     84000000000000004                 04                                             0
46004512570000009000059320                       001      V6900S 2005143200514310     90000000000000004                 04                                             0
46004512570000009000059318001200514312005086              V1100W 9000059318JDBPLUS ACQ    NB000000000000451257                  Y4368050000Y9999840000000              0
46004512570000009000059319001200514312005086              V1100W 9000059319JDBPLUS ACQ    NB000000000000451257                  Y4512570004N0002840000000              0
46004512570000009000059320001200514312005086              V1100W 9000059320JDBPLUS ACQ    NB000000000000451257                  Y4512570004N0004840000000              0
910043680505143000000000000000000000000000000001000000000054000000        000000054000000000000000000000000000000000000000000000000000000000000000000000000000000
920043680505143000000000000000000000000000000001000000000055000000        000000055000000000000000000000000000000000000000000000000000000000000000000000000000000
